:020000040800F2
:1000000000500020BD270008492700084B270008A2
:100010004D2700084F270008512700080000000066
:10002000000000000000000000000000532700084E
:10003000552700080000000057270008592700082E
:1000400005280008052800080528000805280008DC
:1000500005280008052800080528000805280008CC
:1000600005280008052800080528000805280008BC
:1000700005280008052800080528000805280008AC
:10008000052800080528000805280008052800089C
:10009000052800080528000805280008052800088C
:1000A000052800080528000805280008052800087C
:1000B0000528000805280008612700080528000811
:1000C000052800080528000805280008052800085C
:1000D000052800080528000805280008052800084C
:1000E0000528000805280008052800080000000071
:1000F0000000000000000000000000000000000000
:0C01000000000000000000005FF808F1A3
:1001100010B5054C237833B9044B13B10448AFF341
:1001200000800123237010BD0C000020000000009F
:100130002C3B000808B5034B1BB103490348AFF340
:10014000008008BD00000000100000202C3B0008CB
:1001500081F0004102E000BF83F0004330B54FEA78
:1001600041044FEA430594EA050F08BF90EA020FE5
:100170001FBF54EA000C55EA020C7FEA645C7FEA78
:10018000655C00F0E2804FEA5454D4EB5555B8BF9B
:100190006D420CDD2C4480EA020281EA030382EA0C
:1001A000000083EA010180EA020281EA0303362D9E
:1001B00088BF30BD11F0004F4FEA01314FF4801C71
:1001C0004CEA113102D0404261EB410113F0004F83
:1001D0004FEA03334CEA133302D0524263EB43033A
:1001E00094EA050F00F0A780A4F10104D5F1200ED8
:1001F0000DDB02FA0EFC22FA05F2801841F1000133
:1002000003FA0EF2801843FA05F359410EE0A5F106
:1002100020050EF1200E012A03FA0EFC28BF4CF037
:10022000020C43FA05F3C01851EBE37101F00045ED
:1002300007D54FF0000EDCF1000C7EEB00006EEBFA
:100240000101B1F5801F1BD3B1F5001F0CD3490884
:100250005FEA30004FEA3C0C04F101044FEA4452DB
:1002600012F5800F80F09A80BCF1004F08BF5FEA62
:10027000500C50F1000041EB045141EA050130BD42
:100280005FEA4C0C404141EB010111F4801FA4F1E5
:100290000104E9D191F0000F04BF01460020B1FA3A
:1002A00081F308BF2033A3F10B03B3F120020CDA72
:1002B0000C3208DD02F1140CC2F10C0201FA0CF050
:1002C00021FA02F10CE002F11402D8BFC2F1200CB5
:1002D00001FA02F120FA0CFCDCBF41EA0C0190406B
:1002E000E41AA2BF01EB0451294330BD6FEA0404B4
:1002F0001F3C1CDA0C340EDC04F11404C4F120029F
:1003000020FA04F001FA02F340EA030021FA04F3B0
:1003100045EA030130BDC4F10C04C4F1200220FA07
:1003200002F001FA04F340EA0300294630BD21FA45
:1003300004F0294630BD94F0000F83F4801306BF0B
:1003400081F480110134013D4EE77FEA645C18BFFF
:100350007FEA655C29D094EA050F08BF90EA020F96
:1003600005D054EA000C04BF1946104630BD91EA8E
:10037000030F1EBF0021002030BD5FEA545C05D191
:100380004000494128BF41F0004130BD14F58004D0
:100390003CBF01F5801130BD01F0004545F0FE4144
:1003A00041F470014FF0000030BD7FEA645C1ABF79
:1003B000194610467FEA655C1CBF0B46024650EAB0
:1003C000013406BF52EA033591EA030F41F40021DC
:1003D00030BD00BF90F0000F04BF0021704730B562
:1003E0004FF4806404F132044FF000054FF0000137
:1003F00050E700BF90F0000F04BF0021704730B5F8
:100400004FF4806404F1320410F0004548BF4042CC
:100410004FF000013EE700BF42004FEAE2014FEA21
:1004200031014FEA02701FBF12F07F4393F07F4FFC
:1004300081F06051704732F07F4208BF704793F0FF
:100440007F4F04BF41F40021704730B54FF4607412
:1004500001F0004521F000411CE700BF50EA010215
:1004600008BF704730B54FF000050AE050EA0102BE
:1004700008BF704730B511F0004502D5404261EB2E
:1004800041014FF4806404F132045FEA915C3FF46F
:10049000D8AE4FF003025FEADC0C18BF03325FEA0C
:1004A000DC0C18BF033202EBDC02C2F1200300FABD
:1004B00003FC20FA02F001FA03FE40EA0E0021FAE2
:1004C00002F11444BDE600BF70B54FF0FF0C4CF4D0
:1004D000E06C1CEA11541DBF1CEA135594EA0C0F82
:1004E00095EA0C0F00F0DEF82C4481EA030621EABD
:1004F0004C5123EA4C5350EA013518BF52EA0335F8
:1005000041F4801143F4801338D0A0FB02CE4FF0A9
:100510000005E1FB02E506F00042E0FB03E54FF0D9
:100520000006E1FB03569CF0000F18BF4EF0010ED1
:10053000A4F1FF04B6F5007F64F5407404D25FEACD
:100540004E0E6D4146EB060642EAC62141EA555180
:100550004FEAC52040EA5E504FEACE2EB4F1FD0CC2
:1005600088BFBCF5E06F1ED8BEF1004F08BF5FEA40
:10057000500E50F1000041EB045170BD06F00046F2
:1005800046EA010140EA020081EA0301B4EB5C049F
:10059000C2BFD4EB0C0541EA045170BD41F4801197
:1005A0004FF0000E013C00F3AB8014F1360FDEBFBC
:1005B000002001F0004170BDC4F10004203C35DA98
:1005C0000C341BDC04F11404C4F1200500FA05F31B
:1005D00020FA04F001FA05F240EA020001F00042BC
:1005E00021F0004110EBD37021FA04F642EB060132
:1005F0005EEA430E08BF20EAD37070BDC4F10C045C
:10060000C4F1200500FA04F320FA05F001FA04F21F
:1006100040EA020001F0004110EBD37041F100010B
:100620005EEA430E08BF20EAD37070BDC4F1200516
:1006300000FA05F24EEA020E20FA04F301FA05F27E
:1006400043EA020321FA04F001F0004121FA04F226
:1006500020EA020000EBD3705EEA430E08BF20EAF6
:10066000D37070BD94F0000F0FD101F00046400030
:1006700041EB010111F4801F08BF013CF7D041EAB2
:10068000060195F0000F18BF704703F000465200B6
:1006900043EB030313F4801F08BF013DF7D043EA87
:1006A0000603704794EA0C0F0CEA135518BF95EA3D
:1006B0000C0F0CD050EA410618BF52EA4306D1D1C4
:1006C00081EA030101F000414FF0000070BD50EAE3
:1006D000410606BF1046194652EA430619D094EA6D
:1006E0000C0F02D150EA013613D195EA0C0F05D157
:1006F00052EA03361CBF104619460AD181EA0301AB
:1007000001F0004141F0FE4141F470014FF0000062
:1007100070BD41F0FE4141F4780170BD70B54FF0FD
:10072000FF0C4CF4E06C1CEA11541DBF1CEA13557D
:1007300094EA0C0F95EA0C0F00F0A7F8A4EB05045F
:1007400081EA030E52EA03354FEA013100F0888056
:100750004FEA03334FF0805545EA131343EA12631F
:100760004FEA022245EA111545EA10654FEA0026D4
:100770000EF000419D4208BF964244F1FD0404F58D
:10078000407402D25B084FEA3202B61A65EB0305E9
:100790005B084FEA32024FF480104FF4002CB6EBA6
:1007A000020E75EB030E22BFB61A754640EA0C0026
:1007B0005B084FEA3202B6EB020E75EB030E22BF66
:1007C000B61A754640EA5C005B084FEA3202B6EBA7
:1007D000020E75EB030E22BFB61A754640EA9C0066
:1007E0005B084FEA3202B6EB020E75EB030E22BF36
:1007F000B61A754640EADC0055EA060E18D04FEAF4
:10080000051545EA16754FEA06164FEAC30343EA93
:1008100052734FEAC2025FEA1C1CC0D111F4801F60
:100820000BD141EA00014FF000004FF0004CB6E759
:1008300011F4801F04BF01430020B4F1FD0C88BFF8
:10084000BCF5E06F3FF6AFAEB5EB030C04BFB6EB03
:10085000020C5FEA500C50F1000041EB045170BDF6
:100860000EF0004E4EEA113114EB5C04C2BFD4EB23
:100870000C0541EA045170BD41F480114FF0000EA7
:10088000013C90E645EA060E8DE60CEA135594EA23
:100890000C0F08BF95EA0C0F3FF43BAF94EA0C0F26
:1008A0000AD150EA01347FF434AF95EA0C0F7FF49B
:1008B00025AF104619462CE795EA0C0F06D152EAEF
:1008C00003353FF4FDAE1046194622E750EA4106D3
:1008D00018BF52EA43067FF4C5AE50EA41047FF4E4
:1008E0000DAF52EA43057FF4EBAE12E74FF0FF3C49
:1008F00006E000BF4FF0010C02E000BF4FF0010C1A
:100900004DF804CD4FEA410C7FEA6C5C4FEA430C92
:1009100018BF7FEA6C5C1BD001B050EA410C0CBFE1
:1009200052EA430C91EA030F02BF90EA020F002043
:10093000704710F1000F91EA030F58BF994208BFAA
:1009400090422CBFD8176FEAE37040F00100704767
:100950004FEA410C7FEA6C5C02D150EA013C07D1BE
:100960004FEA430C7FEA6C5CD6D152EA033CD3D009
:100970005DF8040B704700BF8446104662468C4603
:100980001946634600E000BF01B5FFF7B7FF002836
:1009900048BF10F1000F01BD4DF808EDFFF7F4FF5F
:1009A0000CBF012000205DF808FB00BF4DF808EDEA
:1009B000FFF7EAFF34BF012000205DF808FB00BF0D
:1009C0004DF808EDFFF7E0FF94BF012000205DF82F
:1009D00008FB00BF4DF808EDFFF7CEFF94BF0120E4
:1009E00000205DF808FB00BF4DF808EDFFF7C4FFDD
:1009F00034BF012000205DF808FB00BF4FEA410230
:100A000012F5001215D211D56FF47873B3EB625260
:100A100012D94FEAC12343F0004343EA505311F087
:100A2000004F23FA02F018BF404270474FF0000019
:100A3000704750EA013005D111F0004008BF6FF057
:100A4000004070474FF00000704700BF4A0011D2CD
:100A500012F5001211D20DD56FF47873B3EB625218
:100A60000ED44FEAC12343F0004343EA505323FA24
:100A700002F070474FF00000704750EA013002D199
:100A80004FF0FF3070474FF00000704710B504463C
:100A90000E4B18784FF47A73B3FBF0F30C4A1068DE
:100AA000B0FBF3F000F08CF868B90F2C01D90120ED
:100AB0000AE0002221464FF0FF3000F041F8034BDE
:100AC0005C60002000E0012010BD00BF000000209D
:100AD0000800002008B5074A136843F010031360AC
:100AE000032000F01BF80020FFF7D0FF01F048FDC5
:100AF000002008BD00200240034A1168034B1B7808
:100B00000B441360704700BFFC070020000000206A
:100B1000014B1868704700BFFC070020074AD368E4
:100B200023F4E0631B041B0C000200F4E060184394
:100B300040F0BF6040F40030D060704700ED00E04E
:100B400030B4174BDB68C3F30223C3F10704042C52
:100B500028BF04241D1D062D18D9033B4FF0FF3577
:100B600005FA04F421EA0401994005FA03F322EAA4
:100B70000303194300280BDB0901C9B200F16040EF
:100B800000F5614080F8001330BC70470023E5E7B2
:100B900000F00F000901C9B2024B1954F4E700BF7D
:100BA00000ED00E014ED00E000F01F024009012319
:100BB0009340024A42F82030704700BF00E100E055
:100BC0000138B0F1807F0AD2064B5860064AF02106
:100BD00082F823100020986007221A6070470120D5
:100BE000704700BF10E000E000ED00E0F0B482B01C
:100BF00000263546A1E0002C59D0012C00D1CE684A
:100C0000FF2B68D88446FF2B68D8AC00DCF80020A6
:100C10000F27A74022EA070206FA04F42243CCF881
:100C200000204A6812F0805F00F086805E4A946976
:100C300044F001049461926902F001020192019A68
:100C4000AC08A71C594A52F8272005F00307BF003B
:100C50004FF00F0C0CFA07FC22EA0C0C544A90429D
:100C600042D002F5806290427FD002F580629042CD
:100C70007DD002F58062904234D0042235E04D4FA1
:100C8000BC4214D00BD94C4FBC4210D007F5803772
:100C9000BC420CD0A7F58017BC42B1D107E0A7F544
:100CA0008017BC4203D007F58037BC42A8D18C68BE
:100CB0007CB1012C08D042610826A1E7CE68083635
:100CC0009EE7CE680C369BE70261082698E700266F
:100CD00096E7042694E700F1040C94E7A5F10804D4
:100CE000A40093E7032200E00022BA4042EA0C028B
:100CF00002342E4F47F824204A6812F4803F38D03F
:100D00002E4C22681A4322604A6812F4003F36D003
:100D10002A4C62681A4362604A6812F4801F34D019
:100D2000264CA2681A43A2604A6812F4001F32D00F
:100D3000224CE2681343E36001350F2D31D80122C4
:100D4000AA400B6813409A42F6D14C68122CB8D0D6
:100D500095D8022CB2D07FF64EAF032CB7D0112C11
:100D60007FF44EAFCE6804364AE70122BDE7022287
:100D7000BBE7124C226822EA03022260C4E70F4C50
:100D8000626822EA03026260C6E70C4CA26822EAAB
:100D90000302A260C8E7094CE26822EA0303E360A9
:100DA000CAE702B0F0BC70470010024000000140EA
:100DB0000008014000002110000031100004014033
:100DC00012B90904016170470161704782B0084B94
:100DD0001B68084AA2FB03235B0A00FB03F0019097
:100DE00000BF019B5A1E0192002BF9D102B070473F
:100DF00008000020D34D621070B582B0044603682D
:100E000013F0010F2CD0AB4B5B6803F00C03042BE9
:100E10001DD0A84B5B6803F00C03082B12D063684D
:100E2000B3F5803F41D0002B55D103F1804303F54A
:100E300004331A6822F480321A601A6822F480227D
:100E40001A6037E09B4B5B6813F4803FE7D0994B07
:100E50001B6813F4003F03D06368002B00F0AE81E1
:100E6000236813F0020F76D0924B5B6813F00C0FDF
:100E70005FD0904B5B6803F00C03082B54D02369C0
:100E8000002B00F08A808C4B01221A60FFF740FE95
:100E90000546884B1B6813F0020F75D1FFF738FE2B
:100EA000401B0228F5D903208BE1824A136843F4E2
:100EB00080331360636843B3FFF72AFE05467D4B1A
:100EC0001B6813F4003FCBD1FFF722FE401B6428C0
:100ED000F5D9032075E1B3F5A02F09D0754B1A6839
:100EE00022F480321A601A6822F480221A60E1E744
:100EF00003F18043A3F53C331A6842F480221A6060
:100F00001A6842F480321A60D4E7FFF701FE054602
:100F1000684B1B6813F4003FA2D0FFF7F9FD401B9C
:100F20006428F5D903204CE1624B5B6813F4803FE1
:100F3000A5D1604B1B6813F0020F04D02369012B6D
:100F400001D001203DE15B4A136823F0F803616999
:100F500043EAC1031360236813F0080F32D0A3697A
:100F6000002B5BD0554B01221A60FFF7D1FD0546DF
:100F7000504B5B6A13F0020F21D1FFF7C9FD401BF4
:100F80000228F5D903201CE14A4A136823F0F8032C
:100F9000616943EAC1031360DDE7474B00221A6031
:100FA000FFF7B6FD0546434B1B6813F0020FD2D086
:100FB000FFF7AEFD401B0228F5D9032001E1012017
:100FC000FFF704FF236813F0040F00F09780394BFC
:100FD000DB6913F0805F33D1364BDA6942F080521F
:100FE000DA61DB6903F080530193019B0125344BE7
:100FF0001B6813F4807F25D0E368012B36D0002BCB
:101000004CD103F1804303F504331A6A22F0010244
:101010001A621A6A22F004021A622CE0274B00229C
:101020001A60FFF775FD0546224B5B6A13F0020F4D
:10103000C8D0FFF76DFD401B0228F5D90320C0E0A2
:101040000025D4E71E4A136843F480731360FFF74A
:101050005FFD06461A4B1B6813F4807FCCD1FFF767
:1010600057FD801B6428F5D90320AAE0114A136AB2
:1010700043F001031362E36873B3FFF749FD0646CB
:101080000C4B1B6A13F0020F37D1FFF741FD801B99
:1010900041F288339842F3D9032092E0052B11D016
:1010A000044B1A6A22F001021A621A6A22F0040240
:1010B0001A62E0E70010024000004242800442420F
:1010C00000700040414B1A6A42F004021A621A6A28
:1010D00042F001021A62CEE7FFF71AFD06463B4BCB
:1010E0001B6A13F0020F08D0FFF712FD801B41F2BC
:1010F00088339842F3D9032063E0E5B9E369002B14
:101100005ED0324A526802F00C02082A5BD0022BF1
:1011100017D02F4B00221A60FFF7FAFC04462B4B26
:101120001B6813F0007F47D0FFF7F2FC001B02287A
:10113000F5D9032045E0254AD36923F08053D361D4
:10114000DCE7234B00221A60FFF7E2FC05461F4B49
:101150001B6813F0007F06D0FFF7DAFC401B022863
:10116000F5D903202DE0236AB3F5803F1AD0174943
:101170004B6823F47413226A606A024313434B6082
:10118000134B01221A60FFF7C3FC04460F4B1B6888
:1011900013F0007F0ED1FFF7BBFC001B0228F5D92E
:1011A00003200EE0094A536823F40033A1680B437F
:1011B0005360DCE7002004E0002002E0012000E0B2
:1011C000002002B070BD0120FBE700BF001002400C
:1011D0006000424210B487B0164C94E80F000DF145
:1011E000180C0CE90F00238AADF80430124B5B6831
:1011F00003F00C02082A1AD1C3F38342624412F8A6
:10120000102C13F4803F05D10C4800FB02F007B00E
:1012100010BC7047084B5B68C3F34043634413F84A
:10122000143C074800FB02F0B0FBF3F0EFE7044882
:10123000EDE700BF483B00080010024000093D00F8
:1012400000127A00624B1B6803F007038B420CD23A
:101250005F4A136823F007030B431360136803F01E
:1012600007038B4201D00120704770B5036813F06B
:10127000020F17D013F0040F04D0564A536843F4FA
:10128000E0635360036813F0080F04D0514A5368B9
:1012900043F4605353604F4A536823F0F00384686B
:1012A000234353600D460446036813F0010F52D0E8
:1012B0004368012B23D0022B28D0464A126812F033
:1012C000020F00F0828043494A6822F00302134370
:1012D0004B60FFF71DFC06466368012B1DD0022BF7
:1012E0002AD03C4B5B6813F00C0F34D0FFF710FC96
:1012F000801B41F288339842F3D9032064E0354AD9
:10130000126812F4003FDED101205DE0314A12681C
:1013100012F0007FD7D1012056E02E4B5B6803F01E
:101320000C03042B17D0FFF7F3FB801B41F288332B
:101330009842F2D9032047E0264B5B6803F00C0388
:10134000082B08D0FFF7E4FB801B41F2883398425A
:10135000F2D9032038E01E4B1B6803F00703AB42B1
:101360000CD91B4A136823F007032B43136013683F
:1013700003F00703AB4201D0012025E0236813F0FE
:10138000040F06D0134A536823F4E063E1680B436B
:101390005360236813F0080F07D00E4A536823F4F4
:1013A0006053216943EAC1035360FFF713FF094B00
:1013B0005B68C3F30313084AD35CD840074B18603B
:1013C0000020FFF763FB002070BD0120FCE700BF99
:1013D00000200240001002405C3B00080800002092
:1013E000F8B505460F4616461C463BE02CB1FFF704
:1013F0008FFB069BC01AA04234D32A68536823F09F
:10140000E00353606B68B3F5827F0BD0AB6AB3F532
:10141000005F14D0012385F85130002385F8503047
:10142000032027E0AB68B3F5004F02D0B3F5806F1F
:10143000ECD12A68136823F040031360E6E72A68BA
:10144000136823F400531B041B0C13602A681368F1
:1014500043F400531360DDE70123B34209D0B4F134
:10146000FF3FC3D12B689B6837EA0303F4D0002306
:10147000F3E70020F8BD10B582B0044600920B4699
:1014800000228021FFF7ACFF034610B9184602B0D6
:1014900010BD636D43F0200363650323F6E72DE978
:1014A000F04385B099460C9D90F85030012B00F028
:1014B000108104460F461646012380F85030FFF78E
:1014C00027FB804694F85130DBB26268012B15D0BF
:1014D000B2F5827F0AD00223012284F85120002233
:1014E00084F85020184605B0BDE8F083A268002AB1
:1014F00040F0E780042B01D00223EDE7002F00F03D
:10150000E280002E00F0E180B9F1000F00F0DF80F2
:1015100094F85130DBB2012B2BD000236365A66316
:10152000A4F83E90A4F83C902763A4F83690A4F861
:1015300034902364636423681A6812F0400F03D167
:101540001A6842F040021A60E368B3F5006F14D0E5
:1015500063681BB1E38E9BB2012B07D1236817F898
:10156000012B1A73E38E013B9BB2E3864FF0010916
:1015700061E0052384F85130CFE763681BB1E38E47
:101580009BB2012B07D1236837F8022BDA60E38E78
:10159000013B9BB2E3864FF0010913E0E38F9BB25E
:1015A0006BB123689A6812F0010F08D0DB6826F847
:1015B000023BE38F013B9BB2E3874FF00109B5F19A
:1015C000FF3F1CD1E38E9BB21BB9E38F9BB2002B74
:1015D00055D0B9F1000FE1D0E38E9BB2002BDDD0E6
:1015E00023689A6812F0020FD8D037F8022BDA601D
:1015F000E38E013B9BB2E3864FF00009CEE7FFF795
:1016000087FAA0EB0800A842DCD3032364E7E38F4A
:101610009BB26BB123689A6812F0010F08D0DB68A7
:101620003370E38F013B9BB2E38701364FF0010932
:10163000B5F1FF3F1BD1E38E9BB213B9E38F9BB291
:10164000EBB1B9F1000FE2D0E38E9BB2002BDED0FC
:1016500023689A6812F0020FD9D03A781A73E38E91
:10166000013B9BB2E38601374FF00009CFE7FFF75C
:101670004FFAA0EB0800A842DDD303232CE7CDF8F6
:1016800000802B46012202212046FFF7A9FE08B167
:10169000032321E7424629462046FFF7ECFE034696
:1016A00018B120236365012316E7A268002A7FF49E
:1016B00013AF03922268D168039192680392039A50
:1016C0000AE7022308E7012306E7012304E70123D1
:1016D00002E7022306E72DE9F04182B004460D46F9
:1016E00017461E464368B3F5827F19D094F85030F0
:1016F000012B00F0A280012384F85030FFF708FA94
:10170000804694F85130DBB2012B15D00220012322
:1017100084F85130002384F8503002B0BDE8F081E5
:101720008368002BE2D1042380F8513000961346E1
:101730000A46FFF7B4FEF0E7002D74D0002F74D0F6
:10174000042384F8513000236365A563A787E787E6
:101750002363A386E38623646364A368B3F5004F21
:101760000BD023681A6812F0400F03D11A6842F0B8
:1017700040021A60E3685BB128E02268136823F432
:1017800080431360EDE7002E51D0B6F1FF3F10D13A
:10179000E38F9BB2002B31D023689A6812F0010FBF
:1017A000F1D01B7B05F8013BE38F013B9BB2E38744
:1017B000EEE7FFF7ADF9A0EB0800B042E8D3032055
:1017C000A5E7002E35D0B6F1FF3F0FD1E38F9BB2D6
:1017D000A3B123689A6812F0010FF2D0DB6825F8F4
:1017E000023BE38F013B9BB2E387EFE7FFF790F902
:1017F000A0EB0800B042E9D3032088E76368B3F5A3
:10180000827F03D0636DB3B9002080E7A368B3F58E
:10181000004F02D0B3F5806FF4D12268136823F033
:1018200040031360EEE7012071E701206FE703201A
:101830006DE703206BE7012069E702206DE70028D0
:101840003CD010B504460023836290F85130002B41
:1018500031D0022384F851302268136823F040030A
:1018600013606368A2681343E26813432269134359
:1018700062691343A26902F400721343E2691343DD
:10188000226A1343A16A22680B431360638B03F03F
:101890000403616A22680B4353602368E26A1A6199
:1018A0002268D36923F40063D361002060650123BB
:1018B00084F8513010BD00F085FECAE70120704762
:1018C00070B4036A23F001030362036A4268846907
:1018D00024F073040D6845EA040623F002048B68C3
:1018E00023430D4DA84209D00B4DA8420DD04260B4
:1018F00086614A684263036270BC704723F0080344
:10190000CC68234323F00403EEE722F440724C69D1
:1019100014438A692243EAE7002C014030B4036A89
:1019200023F480730362036A4268C46924F0730479
:101930000D682C4323F400738D6843EA05230F4D93
:10194000A84209D00D4DA8420ED04260C4614A6839
:10195000C263036230BC704723F40063CD6843EA7E
:10196000052323F48063EDE722F440524D6942EAF7
:1019700005128D6942EA0512E7E700BF002C01401D
:1019800030B4036A23F480530362036A4468C26973
:1019900022F4E6420D6842EA052223F400538D68E2
:1019A00043EA0533074DA84206D04460C2614A6845
:1019B0000264036230BC704724F480444D6944EAF9
:1019C0008514F2E7002C014010B4036A046A24F085
:1019D00001040462846924F0F00444EA021223F052
:1019E0000A030B438261036210BC704710B4036AA0
:1019F00023F0100303628469036A24F4704444EA08
:101A0000023223F0A00343EA01138261036210BC97
:101A10007047836823F0700341F007011943816028
:101A2000704710B4846824F47F4442EA03230B43D4
:101A30002343836010BC70470268D36843F00103FE
:101A4000D3600268136843F00103136000207047FD
:101A50000268D36823F00103D3600368196A41F276
:101A60001112114208D1196A40F24442114203D1C5
:101A70001A6822F001021A600020704790F83C308A
:101A8000012B7DD010B50446012380F83C300223A1
:101A900080F83D300268936823F47F4323F0770396
:101AA00093600B68402B57D010D9702B3ED01FD8B5
:101AB000502B47D0602B32D1CA6849680068FFF7C5
:101AC00095FF60212068FFF7A4FF28E0102B4DD080
:101AD00008D9202B4FD0302B21D130210068FFF7BF
:101AE00098FF1CE0DBB900210068FFF792FF16E0C9
:101AF000B3F5805F0ED0B3F5005F10D1CB684A68B4
:101B000089680068FFF78DFF2268936843F480437B
:101B1000936004E00268936823F007039360012355
:101B200084F83D30002084F83C0010BDCB684A6842
:101B300089680068FFF775FF2268936843F07703B0
:101B40009360ECE7CA6849680068FFF73DFF5021E1
:101B50002068FFF75EFFE2E7CA6849680068FFF7A0
:101B600033FF40212068FFF754FFD8E710210068B9
:101B7000FFF74FFFD3E720210068FFF74AFFCEE7CA
:101B800002207047704770477047704710B5044691
:101B900003681A6912F0020F11D0DA6812F0020F0E
:101BA0000DD06FF002021A610123037703689B696D
:101BB00013F0030F70D0FFF7E6FF002323772368AD
:101BC0001A6912F0040F12D0DA6812F0040F0ED066
:101BD0006FF004021A610223237723689B6913F4D0
:101BE000407F5FD02046FFF7CEFF00232377236896
:101BF0001A6912F0080F12D0DA6812F0080F0ED02E
:101C00006FF008021A61042323772368DB6913F05D
:101C1000030F4ED02046FFF7B6FF0023237723683B
:101C20001A6912F0100F12D0DA6812F0100F0ED0ED
:101C30006FF010021A61082323772368DB6913F41D
:101C4000407F3DD02046FFF79EFF00232377236887
:101C50001A6912F0010F03D0DA6812F0010F36D1C1
:101C600023681A6912F0800F03D0DA6812F0800F2F
:101C700034D123681A6912F0400F03D0DA6812F0E9
:101C8000400F32D123681A6912F0200F03D0DA68AE
:101C900012F0200F30D110BDFFF774FF2046FFF780
:101CA00073FF8AE72046FFF76DFF2046FFF76CFFC2
:101CB0009BE72046FFF766FF2046FFF765FFACE78E
:101CC0002046FFF75FFF2046FFF75EFFBDE76FF09E
:101CD00001021A61204600F02BFAC1E76FF0800282
:101CE0001A61204600F0B8F9C3E76FF040021A61AC
:101CF0002046FFF74AFFC5E76FF020021A61204631
:101D000000F0A9F9C7E7000003681B4A90420AD017
:101D1000B0F1804F07D0A2F59432904203D002F583
:101D20008062904203D123F070034A681343124A41
:101D300090420AD0B0F1804F07D0A2F59432904281
:101D400003D002F58062904203D123F44073CA6845
:101D5000134323F080034A69134303608B68C36213
:101D60000B688362044B984202D0012343617047A1
:101D70000B690363F9E700BF002C0140A8B110B55F
:101D8000044690F83D305BB1022384F83D30211DBC
:101D90002068FFF7B9FF012384F83D30002010BD13
:101DA00080F83C3000F07CFCEEE701207047A8B1E1
:101DB00010B5044690F83D305BB1022384F83D3005
:101DC000211D2068FFF7A0FF012384F83D3000208B
:101DD00010BD80F83C3000F04DFCEEE7012070476C
:101DE00030B4036A23F010030362036A4468826913
:101DF00022F4E6420D6842EA052223F020038D68B2
:101E000043EA05130E4DA84209D00D4DA8420ED04D
:101E1000446082614A688263036230BC704723F089
:101E20008003CD6843EA051323F04003EDE724F473
:101E300040644D6944EA85048D6944EA8504E7E716
:101E4000002C014038B590F83C30012B66D00D468F
:101E50000446012380F83C30022380F83D300C2AF0
:101E60001AD8DFE802F007191919201919193419BD
:101E7000191947000068FFF723FD2268936943F0B2
:101E8000080393612268936923F004039361226835
:101E9000936929690B439361012384F83D30002045
:101EA00084F83C0038BD0068FFF79AFF2268936908
:101EB00043F4006393612268936923F48063936120
:101EC00022689369296943EA01239361E4E7006882
:101ED000FFF724FD2268D36943F00803D361226829
:101EE000D36923F00403D3612268D36929690B43C2
:101EF000D361D1E70068FFF743FD2268D36943F45B
:101F00000063D3612268D36923F48063D3612268BC
:101F1000D369296943EA0123D361BDE70220C1E700
:101F200010B4012303FA01F4036A23EA04030362F1
:101F3000036A8A401343036210BC704710B504461D
:101F400001220068FFF7ECFF2368074A934206D09E
:101F50002268136843F001031360002010BD5A6C1F
:101F600042F400425A64F3E7002C014010B4042309
:101F700003FA01F4036A23EA04030362036A8A4052
:101F80001343036210BC704710B504460422006876
:101F9000FFF7ECFF2268536C43F40043536422685C
:101FA000136843F001031360002010BD90F83C302B
:101FB000012B25D0012380F83C30CB6823F44073FB
:101FC0008A68134323F480634A68134323F400634D
:101FD0000A68134323F480530A69134323F400531C
:101FE0004A69134323F480438A69134323F400436B
:101FF000134302685364002380F83C30184670474E
:102000000220704790F83C30012B22D030B40122DE
:1020100080F83C20022380F83D300468636823F098
:1020200070036360046863680D682B436360046831
:10203000A36823F08003A3600468A36849680B4386
:10204000A36080F83D20002380F83C30184630BC67
:1020500070470220704770477047000030B589B064
:10206000002404940594069407941D4B9A6942F049
:1020700010029A619A6902F010020092009A9A691D
:1020800042F020029A619A6902F020020192019ABC
:102090009A6942F004029A619A6902F0040202927B
:1020A000029A9A6942F008029A619B6903F0080358
:1020B0000393039B0B4D22464FF400512846FEF735
:1020C0007FFE4FF4005304930123059306940223EB
:1020D000079304A92846FEF789FD09B030BD00BF6B
:1020E000001002400010014030B589B06023019318
:1020F0000290B9B1022303930823049300240594AA
:1021000006940794094D224601A92846FFF79AFE36
:1021100021462846FFF712FF21462846FFF734FFE5
:1021200009B030BD002303930493E7E7440800207F
:1021300038B50268244B1B689A4200D038BD234B47
:102140001B88234A1188B3FBF1F2D0B201FB123293
:1021500092B25D1C1F4C2488A5420DDAABB21B4C19
:10216000238058B904EB4202908800F5007080B2D9
:102170000021FFF7B9FFE1E70023F0E7012809D0CC
:10218000022810D0032816D0104B00221A804FF4DA
:102190000070EDE78A1A0D4901EB4202908800F5C4
:1021A000007080B2E4E7094B03EB42029088C0F56F
:1021B000007080B2DCE78A1A044901EB4202908881
:1021C000C0F5007080B2D3E700080020280000208E
:1021D000DC080020400800202DE9F04704461646A0
:1021E0001F46089D312800D8322400223A4B304641
:1021F0003946FEF7F9FB08B10026374F00220023CD
:1022000030463946FEF7C8FB70BB2BA3D3E9002349
:1022100030463946FEF758F906460F462046FEF787
:10222000E9F827A3D3E90023FEF74EF902460B464F
:1022300025A1D1E90001FEF771FAFEF707FC80B293
:10224000013880B2254B18808000254B188000246F
:102250002CE0002225F8132001339BB21F4A12887C
:102260009A42F6D8BDE8F0870023F7E72046FEF74C
:10227000C1F817A3D3E90023FEF726F98046894663
:102280004FEA4A00FEF7B6F802460B46404649467A
:10229000FEF744FA00F0B8FA32463B46FEF714F96E
:1022A000FEF7D4FB25F814000134A4B20B4BB3F8AD
:1022B00000A0A245DAD8D5E70000000000907940E0
:1022C000666666666666064000000000B026F1405D
:1022D000182D4454FB2109400000F03FDC08002089
:1022E00040080020FEE7000000B591B000230E93E7
:1022F0000F930793089309930A930B930C930D93F1
:10230000009301930293039304930593069321484A
:10231000214A0260436083604FF48062C2600361BF
:1023200043618361FFF743FD00282BD100230E9307
:102330000F930EA91748FFF765FE28BB702307937C
:102340000022089209920A920B920C920D9207A910
:102350001048FFF777FDC8B900230093019302935B
:102360000122039204934FF40052059206936946AA
:102370000848FFF71BFE58B9064800F0B1F911B044
:102380005DF804FBFFF7AEFFFFF7ACFFFFF7AAFF16
:10239000FFF7A8FF44080020002C014000B587B0DB
:1023A000002302930393049305930093019313482E
:1023B000134A02600722426083605022C2600361B8
:1023C0008361FFF7DBFC98B906A94FF4805341F80D
:1023D000103D0A48FFF752FB60B9002300930193B8
:1023E00069460648FFF70EFE30B907B05DF804FBFA
:1023F000FFF778FFFFF776FFFFF774FF0008002074
:102400000008004008B50C480C4B036000234360F3
:1024100083604FF40062C2600361436183611022F4
:10242000C2610362436283620A23C362FFF707FA51
:1024300000B908BDFFF756FF8408002000300140B6
:1024400000B591B00023089309930B930C9301936B
:102450000293039304930593012206924FF4803371
:1024600007930A9202220D920E934FF4E0130F93FA
:1024700006A8FEF7C1FC80B90F2301930221029147
:10248000002303934FF480620492059301A8FEF7A2
:10249000D9FE20B911B05DF804FBFFF723FFFFF769
:1024A00021FF0000000000002DE9F04385B0FEF799
:1024B00011FBFFF7C5FFFFF7D1FDFFF715FFFFF792
:1024C0006DFFFFF79FFF00214FF40070FFF70CFE38
:1024D000274B00930022274B6420FFF77DFE264800
:1024E000FFF7AAFA002600270025A846A94616E00D
:1024F000012B30D09DB1204C2046FFF7A9FA0021D6
:102500004FF40070FFF7F0FD194B009332463B4645
:102510004846FFF761FE2046FFF78EFA00250A23A2
:1025200002220DF10E011548FFF7D5F8BDF80E0097
:1025300010F00303DCD184084445DBD02046FDF7CE
:1025400049FF09A3D3E90023FEF7E8F806460F4642
:10255000A0460125CEE780084845CBD0814601251D
:10256000C8E700BFAFF300800000000080FFCF404D
:102570002C0000200000F03F00080020840800200C
:1025800082B00E4B9A6942F001029A619A6902F098
:1025900001020092009ADA6942F08052DA61DB6946
:1025A00003F080530193019B054A536823F0E063D5
:1025B00043F08063536002B0704700BF00100240D8
:1025C0000000014030B589B00023049305930693C1
:1025D00007930268234B9A4201D009B030BD03F53E
:1025E00060439A6942F480529A619A6902F4805277
:1025F0000192019A9A6942F004029A619A6902F082
:1026000004020292029A9A6942F008029A619B6956
:1026100003F008030393039B08AC4FF4004344F812
:10262000103D21461048FEF7E1FA282304930023C9
:10263000059306930D4D21462846FEF7D7FA102341
:102640000493022305930323079321462846FEF7AC
:10265000CDFA074A536843F0E06343F00103536047
:10266000BBE700BF0030014000080140000C014002
:10267000000001400268094B9A4200D0704782B0C6
:1026800003F564439A6942F400629A619B6903F41A
:1026900000630193019B02B0704700BF002C014012
:1026A00002680E4B9A4200D0704700B583B003F524
:1026B0000233DA6942F00402DA61DB6903F00403F1
:1026C0000193019B002211461E20FEF739FA1E20BD
:1026D000FEF76AFA03B05DF804FB00BF0008004093
:1026E00000B587B000230293039304930593026817
:1026F000124B9A4202D007B05DF804FB03F5644325
:102700009A6942F004029A619B6903F00403019301
:10271000019B4FF4C073029302230393059302A914
:102720000748FEF763FA074A536823F0C00343F0F3
:10273000E06343F040035360DDE700BF002C01403D
:1027400000080140000001407047FEE7FEE7FEE799
:10275000FEE770477047704708B5FEF7CDF908BD32
:1027600008B50248FFF712FA08BD00BF00080020B4
:102770000F4B1A6842F001021A6059680D4A0A406C
:102780005A601A6822F0847222F480321A601A6841
:1027900022F480221A605A6822F4FE025A604FF432
:1027A0001F029A60044B4FF000629A60704700BFAE
:1027B000001002400000FFF800ED00E0002103E0FF
:1027C0000B4B5B58435004310A480B4B42189A425A
:1027D000F6D30A4A02E0002342F8043B084B9A422F
:1027E000F9D3FFF7C5FF01F07DF9FFF75DFE7047F4
:1027F000583D0008000000200C0000200C000020C4
:10280000E0080020FEE7000030B5214A21F0004337
:10281000934287B01BDD1F4A934205DD02460B46FB
:10282000FDF79AFC07B030BD02AA00F035F800F0C1
:102830000300012813D002281FD0DDE90423A8B12A
:10284000DDE9020100F048FA01F10041EAE7002465
:1028500000220023009400F08BFF07B030BDDDE9BB
:102860000423DDE9020100F037FADBE70124DDE9AA
:102870000201009400F07CFFD4E70124DDE9042389
:10288000DDE90201009400F073FF01F10041C9E7A6
:10289000FB21E93FFFFFEF7F2DE9F04FC84C21F00E
:1028A0000045A5428FB040F38A801446C54A0E46C3
:1028B000954226DCB8A3D3E90023002940F38A809F
:1028C000FDF74AFCC04B06469D420F4600F046818C
:1028D000B3A3D3E90023FDF73FFC02460B46304685
:1028E000C4E900233946FDF737FCADA3D3E9002343
:1028F000FDF732FC0127C4E9020138460FB0BDE8FC
:10290000F08FB24A954240F38480B14A954200F379
:102910001B812F15A7F21647A5EB07518B46824660
:10292000FEF76CF8FDF766FD8046894642464B4649
:1029300050465946CDE90889FDF70EFC0022A54B0B
:10294000FDF7C2FD8B468246FEF758F8FDF752FDB3
:102950008046894642464B4650465946CDE90A894B
:10296000FDF7FAFB00229B4BFDF7AEFD0022002392
:10297000CDE90C01FEF710F8002800F05F8100237C
:10298000404649460022FEF707F8002814BF0123FD
:102990000223022090493A46CDE90001214608A8C9
:1029A00000F0BEFA002E074610DA6268E36802F112
:1029B000004203F1004347426260E36006E0002406
:1029C00000250027C2E90245C2E9000138460FB0E0
:1029D000BDE8F08FFDF7C2FB7B4B06469D420F46DC
:1029E00000F00E816EA3D3E90023FDF7B7FB02468A
:1029F0000B4630463946C4E90023FDF7ADFB68A31A
:102A0000D3E90023FDF7AAFB4FF0FF37C4E9020129
:102A1000DCE700F063FF64A3D3E900238046894626
:102A2000FDF752FD00226D4BFDF798FBFDF7E6FF29
:102A30000746FDF7DFFC58A3D3E9002382468B4607
:102A4000CDE904ABFDF740FD02460B464046494642
:102A5000FDF782FB52A3D3E90023CDE902015046E2
:102A60005946FDF731FD1F2F8046894602460B4629
:102A7000DDE9020140F3B480FDF76EFB83468A4630
:102A80002D15CAF30A53EB1A102B40F3B48048A358
:102A9000D3E90023DDE90401FDF716FD80468946F0
:102AA00002460B46DDE90201FDF756FB82468B46E6
:102AB00002460B46DDE90201FDF74EFB42464B465E
:102AC000FDF74AFB3CA3D3E9002380468946DDE9B4
:102AD0000401FDF7F9FC42464B46FDF73DFB0B4672
:102AE00002468046894650465946CDE906ABFDF779
:102AF00033FBC1F30A53ED1A312D83468A4600F3A6
:102B00009F8002460B46DDE90601C4E90023CDE9BA
:102B10000201DDE902015A465346FDF71DFB42461C
:102B20004B46FDF719FB02460B46002EC4E9022373
:102B3000BFF64CAF0AF1004301F10041C4E900B314
:102B4000C4E902017F4241E702460B46FDF704FB60
:102B50000027C4E90201C4E9000137E714A3D3E95F
:102B60000023FDF7F9FA14A3D3E900230F46064624
:102B7000FDF7F2FA02460B4630463946C4E9002317
:102B8000FDF7EAFA0CA3D3E90023FDF7E5FA0127E4
:102B9000C4E902011AE700BF00004054FB21F93FDD
:102BA0003163621A61B4D03D83C8C96D305FE43FC0
:102BB0000000601A61B4D03D7370032E8A19A33BE4
:102BC000FB21E93F7BD90240FB21F93FFB21394141
:102BD000FFFFEF7F00007041F43B00080000E03F82
:102BE000FDF7BAFA3A4B7A1E53F822308346AB42CD
:102BF0008A463FF445AF5A465346C4E9002388E766
:102C00002BA3D3E90023FDF7A9FA2BA3D3E90023D3
:102C10000F460646FDF7A2FA02460B4630463946F5
:102C2000C4E90023FDF798FA23A3D3E90023FDF7B5
:102C300095FA4FF0FF37C4E90201C7E60323A8E67F
:102C40001FA3D3E90023DDE90401FDF73DFC804625
:102C5000894602460B46DDE90601FDF77DFA82460C
:102C60008B4602460B46DDE90601CDE902ABFDF7D6
:102C700073FA42464B46FDF76FFA13A3D3E90023DC
:102C800080468946DDE90401FDF71EFC42464B46BD
:102C9000FDF762FA02460B46804689465046594681
:102CA000FDF75AFA83468A46A5E700BFAFF30080D6
:102CB0000000601A61B4D03D7370032E8A19A33BE3
:102CC0000000002E8A19A33BC14920259A837B3935
:102CD000743B0008000000002DE9F04F21F0004691
:102CE000B6F1795F85B00C4692469B4605466BDA95
:102CF000FDF784FE002800F0E1802A46234628469E
:102D00002146FDF7E1FB74A3D3E900238046894601
:102D1000FDF7DAFB72A3D3E90023FDF71FFA424661
:102D20004B46FDF7D1FB70A3D3E90023FDF714FA5E
:102D300042464B46FDF7C8FB6DA3D3E90023FDF7E0
:102D40000DFA42464B46FDF7BFFB6BA3D3E90023C8
:102D5000FDF702FA42464B46FDF7B6FB68A3D3E9FE
:102D60000023FDF7FBF942464B46FDF7ADFBCDE9ED
:102D700000010022644B40464946FDF7A5FBDDE912
:102D8000002306460F4640464946FDF79DFB524646
:102D9000804689465B4628462146FDF795FB02465C
:102DA0000B4640464946FDF7D7F902460B463046EA
:102DB0003946FDF7D1F902460B4600205349FDF78D
:102DC000CBF905B0BDE8F08F02460B46FDF77CFB62
:102DD00041A3D3E9002380468946FDF775FB40A354
:102DE000D3E90023FDF7BAF942464B46FDF76CFBE9
:102DF0003DA3D3E90023FDF7AFF942464B46FDF76B
:102E000063FB3BA3D3E90023FDF7A8F942464B46F9
:102E1000FDF75AFB38A3D3E90023FDF79DF942469D
:102E20004B46FDF751FB36A3D3E90023FDF796F996
:102E30004B464246FDF748FB354BCDE900019E422B
:102E400097DD344B00229E423DDCA6F500130020A6
:102E50002E4916461F46FDF77FF9CDE902010022F3
:102E6000294B40464946FDF72FFB32463B46FDF7CE
:102E700073F9DDE9002306460F4640464946FDF753
:102E800023FB5246804689465B4628462146FDF78D
:102E90001BFB02460B4640464946FDF75DF90246DC
:102EA0000B4630463946FDF757F902460B46DDE939
:102EB0000201FDF751F905B0BDE8F08F002013497C
:102EC00005B0BDE8F08F144B0026CDE90223134F67
:102ED000C5E700BFAFF30080D43888BEE9FAA8BDCB
:102EE000C4B1B4BD9EEE213EAD529C804F7E923E59
:102EF0009015CB19A001FA3E7751C1166CC1563F0F
:102F00004C5555555555A53F0000E03F0000F03F9A
:102F10003233D33F0000E93F0000E73F0000D23FDB
:102F20002DE9F04F1F46ADF5197DBF4C0793D31E19
:102F300084FB0354DB17C3EBA40323EAE375BB4C08
:102F4000A29E6B1C54F82660A3EB83037C1E02EB4D
:102F5000C3030593331909950496019407460B9111
:102F6000A5EB04081DD44344002400255E1C0DF18C
:102F70008009DDF88CA209E05AF82800FDF73AFA3A
:102F800008F10108B045E9E802010AD0B8F1000FE4
:102F9000F2DA2046294608F10108B045E9E80201C5
:102FA000F4D1049B002BC0F2B783A7F108021146AD
:102FB000079B0392DB0020AA02EB0309029301EBBB
:102FC0000308049B72AA02EBC30B0DF5E07A019B88
:102FD000002BC0F295814D4600260027039C75E921
:102FE0000223F4E90201FDF76FFA02460B46304670
:102FF0003946FDF7B3F8444506460F46EFD1EAE8F7
:103000000267DA4509F10809E1D1DDE90210049B04
:1030100001449B468A469B000BA9A3F10802CB18EA
:1030200008930CAB13440A9398AB03EBCB03BBF1AF
:10303000000F53E9284529DD70AB0DF1300903EB92
:10304000CB0800227A4B20462946FDF73DFAFDF7D2
:10305000D5FCFDF7CFF90022764B06460F46FDF76B
:1030600033FA02460B4620462946FDF775F8FDF770
:10307000C5FC78E9022349F8040B39463046FDF7D0
:103080006DF870AB984504460D46DAD1DDF8149022
:10309000204629464A4600F0ABFC00224FF07F5301
:1030A00004460D46FDF710FA00F01EFC0022624BAC
:1030B000FDF70AFA02460B4620462946FDF74CF872
:1030C0000D460446FDF79AFC8046FDF793F90B4642
:1030D000024629462046FDF73FF84B46002B0646A0
:1030E0000F4640F3E1800BF1FF310CAA52F821505A
:1030F000C9F1180345FA03F202FA03F3EB1A0CA81C
:10310000C9F1170540F82130904443FA05F5002D28
:103110002CDDBBF1000F08F1010840F399820C9CF3
:10312000002C40F0A780BBF1010F0AD001220CA9AE
:1031300051F8044F531C002C40F09E809B451A46CA
:10314000F6D1059B002B0EDD012B00F0B581022B83
:1031500009D10BF1FF320CAB53F822300CA9C3F3A9
:10316000150341F82230022D00F0AF800022002329
:1031700030463946FDF710FC002800F06B82049BB6
:103180000BF1FF394B4510DC00220BF18043013B72
:103190000CA9089801EB830353F80419834242EA0F
:1031A0000102F9D1002A40F0B580049B0CAA013B32
:1031B00052F82330002B40F0A18001230A9A52F8E4
:1031C000041901330029FAD05B440BF10109994538
:1031D000069349DC099A079909EB020801EB0B05F4
:1031E00008F1804802EB030BA39B08F1FF3803EBC7
:1031F000880870AB03EBC909A39B20A903EB8B03E1
:1032000001EBC505029358F8040FFDF7F3F8019B95
:1032100005F1080B002BC5E9000128DB039C002603
:103220000027083D0CE000BFABAAAA2A403D0008D9
:103230000000703E000070410000204075E802016F
:10324000F4E90223FDF740F902460B4630463946C1
:10325000FCF784FF544506460F46EFD1029BE9E890
:10326000026798455D46CED1DDF818B0DCE6002651
:103270000027F3E701230022C4F180740CA99B45C9
:1032800041F822400EDD51F823206FF07F4001EB22
:10329000830301EB8B0100E01A68821A43F8042BC8
:1032A0008B42F9D101244CE706D10BF1FF330CAA74
:1032B00052F82350ED152AE70022874BFDF78AFBD1
:1032C000002840F0BE81054650E732463B460020CC
:1032D0008249FCF741FF06460F46002C3FF446AFFB
:1032E000059A00207D4900F083FB02460B463046DC
:1032F0003946FCF731FF06460F4637E7012363E7FF
:1033000000260027EAE80267DA4509F108097FF498
:103310005EAE7AE6059A0CAB53F82930183ACDE93F
:10332000068505926BB909F18043013B0CA901EBBD
:10333000830353F8041909F1FF39183A0029F8D02A
:103340000592059A0020654900F052FBB9F1000F83
:1033500004460D46C0F2E7814FF0000A4FEAC90368
:1033600070AA02EB030808930CAB03EB8906DFF8A5
:1033700070B108F10807043656F8040DFDF73AF865
:1033800022462B46FDF7A0F85B4667E9020152464C
:1033900020462946FDF798F80CAB9E4204460D46A0
:1033A000EAD1C3464FF0000A48AB03930193CDF82E
:1033B000149009F10103DDF810900293B9F1000FA8
:1033C000C0F23C8142A3D3E90023DFF818815D46B7
:1033D00000260027002403E0544510DCF8E802230F
:1033E000F5E80201FDF770F802460B463046394613
:1033F000FCF7B4FE0134A14506460F46ECDA019B0A
:103400000AF1010AE3E802670193029BABF1080BA2
:103410009A45D3D1A29BDDF81490032B45D8DFE861
:1034200013F0EC0006000600650048AB039300248F
:10343000B9F1000F21460CDB039B984603EBC9054D
:10344000083575E902232046FCF788FEA8450446A6
:10345000F7D1079B002B40F0368126460F462246C7
:103460000B460B9C0399C4E90067D1E90001FCF706
:1034700073FEB9F1000F07460E4611DD31460124F7
:103480004E46039D3846F5E90223FCF767FE0134FA
:10349000A6420746F6DA079B0E46002B40F0258130
:1034A0003A4633460B99C1E90223069B03F0070015
:1034B0000DF5197DBDE8F08F0BF1FF320CAB53F821
:1034C00022300CA9C3F3160341F822304BE600BFAB
:1034D00000000040FB21F93F0000E03F0000F03F0A
:1034E0000000703E083D000848AB0393B9F1000F9F
:1034F00040F33581039A4FEAC9030193D318CDF8FD
:1035000008909846D3E900AB914658E902675246C5
:103510005B4630463946FCF721FE04460D4602461E
:103520000B4630463946FCF717FE52465B46FCF721
:1035300015FEC8E9000168E90245C145A246AB464F
:10354000E3D1DDF80890B9F1010F40F30881019B48
:10355000039A0DF5947B13449A46D3E900670193CF
:103560005AE9028932463B4640464946FCF7F6FD99
:1035700004460D4602460B4640464946FCF7ECFD24
:1035800032463B46FCF7EAFDCAE900016AE902451A
:10359000D34526462F46E3D100231946019C039AC2
:1035A000083402F110051E4674E902233046FCF788
:1035B000D5FDA5420346F6D18C46039A1146D2E9C1
:1035C0000082D1E902E90799002900F091800B9C63
:1035D00009F100402361069B02F100420CF1004119
:1035E000E06003F0070062606161C4F80080C4F825
:1035F00008E00DF5197DBDE8F08F0023089D039FBD
:1036000008353D442E4619461C4676E902232046DD
:10361000FCF7A4FDB7420346F6D10C46079A0AB15F
:1036200004F10044184621460B9BC3E90001069BA8
:1036300003F007000DF5197DBDE8F08F0026002787
:10364000DDE6BBF1000F08F101087EDD022566E52D
:10365000002476E5CDE90685059D304639466A4267
:1036600000F0C6F900223F4B06460F46FDF7B2F9BF
:1036700000B300223C4B30463946FCF725FFFDF7EE
:10368000BDF90446FCF7B6FE0022364BFCF71CFFE2
:103690000B46024639463046FCF75EFDFDF7AEF9B3
:1036A0000BF101090CAB183543F82B00059543F8D5
:1036B000294046E630463946FDF7A0F90CABD9461D
:1036C00043F82B003DE60B4601F100450B9E0399A4
:1036D000C6E90045D1E900012246FCF73DFDB9F1FC
:1036E000000F07460E463FF7C9AE06F10046D7E683
:1036F00018464646744617464D4661460B9BC3E93D
:103700000401C3E90067C3E90245069B03F0070013
:103710000DF5197DBDE8F08FA7F108030393079B12
:10372000DB00029371E4A29B032B3FF6BEAE01A225
:1037300052F823F0453700082B3400082B340008DA
:10374000E934000800231C4668E732463B46002067
:103750000649FCF701FD022506460F4606E5002353
:103760009C462AE7000070410000703E0000F03FD8
:103770002DE9F04F21F00046B6F1795F85B00C4697
:1037800090469946054604DAFDF738F9002800F01E
:1037900085802A46234628462146FCF795FE0646A4
:1037A0000F4602460B4628462146FCF78DFE3EA3F7
:1037B000D3E9002382468B4630463946FCF784FE27
:1037C0003BA3D3E90023FCF7C7FC32463B46FCF79A
:1037D0007BFE39A3D3E90023FCF7C0FC32463B460D
:1037E000FCF772FE36A3D3E90023FCF7B5FC3246A2
:1037F0003B46FCF769FE34A3D3E90023FCF7AEFC9B
:103800000E9BCDE900019BB30022334B4046494655
:10381000FCF75AFEDDE90023CDE902015046594686
:10382000FCF752FE02460B46DDE90201FCF794FC70
:1038300032463B46FCF748FE42464B46FCF78CFCC2
:1038400023A3D3E9002306460F4650465946FCF70A
:103850003BFE02460B4630463946FCF77FFC0246EB
:103860000B4628462146FCF777FC05B0BDE8F08FF3
:1038700002460B4630463946FCF726FE14A3D3E930
:103880000023FCF769FC52465B46FCF71DFE2A4606
:103890002346FCF763FC05B0BDE8F08F28462146BF
:1038A00005B0BDE8F08F00BF7CD5CF5A3AD9E53DD1
:1038B000EB9C2B8AE6E55A3E7DFEB157E31DC73EE1
:1038C000D561C119A0012A3FA6F810111111813F3D
:1038D000495555555555C53F0000E03F21F000437F
:1038E0001946704700000000C1F30A522DE9F84361
:1038F000A2F2FF36132E0B460D46044688460746B5
:103900001DDC002E3DDB384A42FA06F901EA0902C5
:10391000024319D032A3D3E90023FCF71FFC002295
:103920000023FDF761F8D0B3002D04DA4FF48013C3
:1039300043FA06F6B04428EA090500272FE0332EA3
:1039400006DDB6F5806F2FD019462046BDE8F88316
:103950004FF0FF39A2F2134229FA02F919EA000FD7
:10396000F2D01FA3D3E90023FCF7F8FB00220023C9
:10397000FDF73AF898B1002D24DB27EA0907454600
:103980000DE017A3D3E90023FCF7E8FB0022002396
:10399000FDF72AF818B1002D0BDB00273D463C4609
:1039A00029462046BDE8F8830246FCF7D7FB0446CB
:1039B000CBE725F000430D4A1F43002F18BF1546E3
:1039C0000027ECE7142E08D00123C6F1340603FAD1
:1039D00006F6371928BF9844CFE705F10108CCE770
:1039E0009C7500883CE4377EFFFF0F000000F0BFAD
:1039F000F8B5C1F30A5304460D460E4617460BBBF5
:103A0000034621F0004633431BD02F4B0022FCF726
:103A10005BFD2E4B04469F420D4637DB0E46C1F33D
:103A20000A53363B40F2FE723B4493421ADC002BB1
:103A300011DD26F0FF4626F4E00646EA035520464F
:103A40002946F8BD40F2FF729342EBD102460B4685
:103A5000FCF784FBF8BD13F1350F1DDA4CF250333F
:103A60009F420CDD14A1D1E9000122462B4600F053
:103A700031F811A3D3E90023FCF726FDF8BD224657
:103A80000FA1D1E900012B4600F024F80CA3D3E9E3
:103A90000023FCF719FDF8BD26F0FF4626F4E006EA
:103AA000363346EA0355204629460022084BFCF7E8
:103AB0000BFDF8BDAFF300809C7500883CE4377EB9
:103AC00059F3F8C21F6EA50100005043B03CFFFF40
:103AD0000000903C03F0004321F0004242EA030161
:103AE000704700BF70B500250C4E0D4CA41BA410F0
:103AF000A54209D100F01AF800250A4E0A4CA41B71
:103B0000A410A54205D170BD56F82530984701355F
:103B1000EEE756F8253098470135F2E7503D0008AA
:103B2000503D0008503D0008543D0008F8B500BF66
:103B3000F8BC08BC9E467047F8B500BFF8BC08BC8E
:043B40009E467047E6
:103B480002030405060708090A0B0C0D0E0F1010D6
:103B58000102000000000000000000000102030450
:103B6800060708090000000001020304FB21F93FD1
:103B7800FB2109407CD91240FB2119407A6A1F4079
:103B88007CD92240BBFD2540FB2129403A462C40E8
:103B98007A6A2F405C4731407CD932409C6B344074
:103BA800BBFD3540DB8F3740FB2139401BB43A4021
:103BB8003A463C405AD83D407A6A3F404C7E4040A5
:103BC8005C4741406C1042407CD942408CA2434043
:103BD8009C6B4440AC344540BBFD4540CBC6464099
:103BE800DB8F4740EB584840FB21494083F9A2004E
:103BF800444E6E00FC291500D1572700DD34F5002E
:103C080062DBC0003C999500419043006351FE007F
:103C1800BBDEAB00B761C5003A6E2400D24D42004E
:103C28004906E00009EA2E001C92D100EB1DFE00B7
:103C380029B11C00E83EA700F535820044BB2E00E0
:103C48009CE98400B4267000417E5F00D69139005B
:103C5800538339009CF439008B5F840028F9BD0038
:103C6800F81F3B00DEFF97000F980500112FEF00AB
:103C78000A5A8B006D1F6D00CF7E360009CB2700D6
:103C8800464FB7009E663F002DEA5F00BA277500D1
:103C9800E5EBC7003D7BF100F739070092528A0037
:103CA800FB6BEA001FB15F00085D8D003003560012
:103CB8007BFC4600F0AB6B0020BCCF0036F49A00CA
:103CC800E3A91D005E619100081BE6008599650067
:103CD800A0145F008D40680080D8FF0027734D0056
:103CE80006063100CA561500C9A873007BE26000B9
:103CF8006B8CC0000000000000000040FB21F93F71
:103D0800000000002D44743E000000809846F83CF6
:103D18000000006051CC783B00000080831BF03924
:103D28000000004020257A38000000802282E33617
:103D3800000000001DF369350200000003000000C8
:083D4800040000000600000069
:043D50003501000831
:043D54001101000851
:0C3D5800010000001000000000A24A045E
:04000005080027BD0B
:00000001FF
